{
  "contractName": "Crud",
  "abi": [
    {
      "inputs": [],
      "name": "nextId",
      "outputs": [
        {
          "internalType": "uint256",
          "name": "",
          "type": "uint256"
        }
      ],
      "stateMutability": "view",
      "type": "function",
      "constant": true
    },
    {
      "inputs": [
        {
          "internalType": "uint256",
          "name": "",
          "type": "uint256"
        }
      ],
      "name": "users",
      "outputs": [
        {
          "internalType": "uint256",
          "name": "id",
          "type": "uint256"
        },
        {
          "internalType": "string",
          "name": "name",
          "type": "string"
        }
      ],
      "stateMutability": "view",
      "type": "function",
      "constant": true
    },
    {
      "inputs": [
        {
          "internalType": "string",
          "name": "name",
          "type": "string"
        }
      ],
      "name": "create",
      "outputs": [],
      "stateMutability": "nonpayable",
      "type": "function"
    },
    {
      "inputs": [
        {
          "internalType": "uint256",
          "name": "id",
          "type": "uint256"
        }
      ],
      "name": "read",
      "outputs": [
        {
          "internalType": "uint256",
          "name": "",
          "type": "uint256"
        },
        {
          "internalType": "string",
          "name": "",
          "type": "string"
        }
      ],
      "stateMutability": "view",
      "type": "function",
      "constant": true
    },
    {
      "inputs": [
        {
          "internalType": "uint256",
          "name": "id",
          "type": "uint256"
        },
        {
          "internalType": "string",
          "name": "name",
          "type": "string"
        }
      ],
      "name": "update",
      "outputs": [],
      "stateMutability": "nonpayable",
      "type": "function"
    },
    {
      "inputs": [
        {
          "internalType": "uint256",
          "name": "id",
          "type": "uint256"
        }
      ],
      "name": "destroy",
      "outputs": [],
      "stateMutability": "nonpayable",
      "type": "function"
    }
  ],
  "bytecode": "0x608060405260018055348015610013575f80fd5b50610bec806100215f395ff3fe608060405234801561000f575f80fd5b5060043610610060575f3560e01c8063365b98b21461006457806361b8ce8c146100955780639d118770146100b3578063b6a46b3b146100cf578063ed2e5a97146100eb578063f745630f1461011c575b5f80fd5b61007e6004803603810190610079919061050c565b610138565b60405161008c9291906105d0565b60405180910390f35b61009d6101ec565b6040516100aa91906105fe565b60405180910390f35b6100cd60048036038101906100c8919061050c565b6101f2565b005b6100e960048036038101906100e49190610743565b610239565b005b6101056004803603810190610100919061050c565b6102b1565b6040516101139291906105d0565b60405180910390f35b6101366004803603810190610131919061078a565b610398565b005b5f8181548110610146575f80fd5b905f5260205f2090600202015f91509050805f01549080600101805461016b90610811565b80601f016020809104026020016040519081016040528092919081815260200182805461019790610811565b80156101e25780601f106101b9576101008083540402835291602001916101e2565b820191905f5260205f20905b8154815290600101906020018083116101c557829003601f168201915b5050505050905082565b60015481565b5f6101fc826103d9565b90505f818154811061021157610210610841565b5b905f5260205f2090600202015f8082015f9055600182015f6102339190610470565b50505050565b5f6040518060400160405280600154815260200183815250908060018154018082558091505060019003905f5260205f2090600202015f909190919091505f820151815f015560208201518160010190816102949190610a0b565b50505060015f8154809291906102a990610b07565b919050555050565b5f60605f6102be846103d9565b90505f81815481106102d3576102d2610841565b5b905f5260205f2090600202015f01545f82815481106102f5576102f4610841565b5b905f5260205f20906002020160010180805461031090610811565b80601f016020809104026020016040519081016040528092919081815260200182805461033c90610811565b80156103875780601f1061035e57610100808354040283529160200191610387565b820191905f5260205f20905b81548152906001019060200180831161036a57829003601f168201915b505050505090509250925050915091565b5f6103a2836103d9565b9050815f82815481106103b8576103b7610841565b5b905f5260205f20906002020160010190816103d39190610a0b565b50505050565b5f805f90505b5f8054905081101561042f57825f82815481106103ff576103fe610841565b5b905f5260205f2090600202015f01540361041c578091505061046b565b808061042790610b07565b9150506103df565b506040517f08c379a000000000000000000000000000000000000000000000000000000000815260040161046290610b98565b60405180910390fd5b919050565b50805461047c90610811565b5f825580601f1061048d57506104aa565b601f0160209004905f5260205f20908101906104a991906104ad565b5b50565b5b808211156104c4575f815f9055506001016104ae565b5090565b5f604051905090565b5f80fd5b5f80fd5b5f819050919050565b6104eb816104d9565b81146104f5575f80fd5b50565b5f81359050610506816104e2565b92915050565b5f60208284031215610521576105206104d1565b5b5f61052e848285016104f8565b91505092915050565b610540816104d9565b82525050565b5f81519050919050565b5f82825260208201905092915050565b5f5b8381101561057d578082015181840152602081019050610562565b5f8484015250505050565b5f601f19601f8301169050919050565b5f6105a282610546565b6105ac8185610550565b93506105bc818560208601610560565b6105c581610588565b840191505092915050565b5f6040820190506105e35f830185610537565b81810360208301526105f58184610598565b90509392505050565b5f6020820190506106115f830184610537565b92915050565b5f80fd5b5f80fd5b7f4e487b71000000000000000000000000000000000000000000000000000000005f52604160045260245ffd5b61065582610588565b810181811067ffffffffffffffff821117156106745761067361061f565b5b80604052505050565b5f6106866104c8565b9050610692828261064c565b919050565b5f67ffffffffffffffff8211156106b1576106b061061f565b5b6106ba82610588565b9050602081019050919050565b828183375f83830152505050565b5f6106e76106e284610697565b61067d565b9050828152602081018484840111156107035761070261061b565b5b61070e8482856106c7565b509392505050565b5f82601f83011261072a57610729610617565b5b813561073a8482602086016106d5565b91505092915050565b5f60208284031215610758576107576104d1565b5b5f82013567ffffffffffffffff811115610775576107746104d5565b5b61078184828501610716565b91505092915050565b5f80604083850312156107a05761079f6104d1565b5b5f6107ad858286016104f8565b925050602083013567ffffffffffffffff8111156107ce576107cd6104d5565b5b6107da85828601610716565b9150509250929050565b7f4e487b71000000000000000000000000000000000000000000000000000000005f52602260045260245ffd5b5f600282049050600182168061082857607f821691505b60208210810361083b5761083a6107e4565b5b50919050565b7f4e487b71000000000000000000000000000000000000000000000000000000005f52603260045260245ffd5b5f819050815f5260205f209050919050565b5f6020601f8301049050919050565b5f82821b905092915050565b5f600883026108ca7fffffffffffffffffffffffffffffffffffffffffffffffffffffffffffffffff8261088f565b6108d4868361088f565b95508019841693508086168417925050509392505050565b5f819050919050565b5f61090f61090a610905846104d9565b6108ec565b6104d9565b9050919050565b5f819050919050565b610928836108f5565b61093c61093482610916565b84845461089b565b825550505050565b5f90565b610950610944565b61095b81848461091f565b505050565b5b8181101561097e576109735f82610948565b600181019050610961565b5050565b601f8211156109c3576109948161086e565b61099d84610880565b810160208510156109ac578190505b6109c06109b885610880565b830182610960565b50505b505050565b5f82821c905092915050565b5f6109e35f19846008026109c8565b1980831691505092915050565b5f6109fb83836109d4565b9150826002028217905092915050565b610a1482610546565b67ffffffffffffffff811115610a2d57610a2c61061f565b5b610a378254610811565b610a42828285610982565b5f60209050601f831160018114610a73575f8415610a61578287015190505b610a6b85826109f0565b865550610ad2565b601f198416610a818661086e565b5f5b82811015610aa857848901518255600182019150602085019450602081019050610a83565b86831015610ac55784890151610ac1601f8916826109d4565b8355505b6001600288020188555050505b505050505050565b7f4e487b71000000000000000000000000000000000000000000000000000000005f52601160045260245ffd5b5f610b11826104d9565b91507fffffffffffffffffffffffffffffffffffffffffffffffffffffffffffffffff8203610b4357610b42610ada565b5b600182019050919050565b7f5573657220646f6573206e6f74206578697374210000000000000000000000005f82015250565b5f610b82601483610550565b9150610b8d82610b4e565b602082019050919050565b5f6020820190508181035f830152610baf81610b76565b905091905056fea264697066735822122060c4455f32403b9a674f57cc66e944a2960203c631d544421aeb859da0a4673164736f6c63430008150033",
  "immutableReferences": {},
  "source": "// SPDX-License-Identifier: GPL-3.0\r\npragma solidity ^0.8.0;\r\n\r\ncontract Crud {\r\n  struct User {\r\n    uint id;\r\n    string name;\r\n  }\r\n  User[] public users;\r\n  uint public nextId = 1;\r\n\r\n  function create(string memory name) public {\r\n    users.push(User(nextId, name));\r\n    nextId++;\r\n  }\r\n\r\n  function read(uint id) view public returns(uint, string memory) {\r\n    uint i = find(id);\r\n    return(users[i].id, users[i].name);\r\n  }\r\n\r\n  function update(uint id, string memory name) public {\r\n    uint i = find(id);\r\n    users[i].name = name;\r\n  }\r\n\r\n  function destroy(uint id) public {\r\n    uint i = find(id);\r\n    delete users[i];\r\n  }\r\n\r\n  function find(uint id) view internal returns(uint) {\r\n    for(uint i = 0; i < users.length; i++) {\r\n      if(users[i].id == id) {\r\n        return i;\r\n      }\r\n    }\r\n    revert('User does not exist!');\r\n  }\r\n\r\n}\r\n",
  "sourcePath": "D:\\Portfolio - Projects\\1-Crud_\\contracts\\Crud.sol",
  "compiler": {
    "name": "solc",
    "version": "0.8.21+commit.d9974bed.Emscripten.clang"
  },
  "schemaVersion": "3.4.16",
  "updatedAt": "2024-06-25T10:41:14.286Z",
  "networkType": "ethereum",
  "devdoc": {
    "kind": "dev",
    "methods": {},
    "version": 1
  },
  "userdoc": {
    "kind": "user",
    "methods": {},
    "version": 1
  }
}